:01000000B44B
:01000100B44A
:01000200B449
:01000300B448
:01000400B447
:01000500B446
:01000600B445
:01000700B444
:01000800B443
:01000900B442
:01000A00B441
:01000B00B440
:01000C00B43F
:01000D00B43E
:01000E00B43D
:01000F00B43C
:01001000B43B
:01001100B43A
:01001200B439
:01001300B438
:01001400B437
:01001500B436
:01001600B435
:01001700B434
:01001800B433
:01001900B432
:01001A00B431
:01001B00B430
:01001C00B42F
:01001D00B42E
:01001E00B42D
:01001F00B42C
:01002000B42B
:01002100B42A
:01002200B429
:01002300B428
:01002400B427
:01002500B426
:01002600B425
:01002700B424
:01002800B423
:01002900B422
:01002A00B421
:01002B00B420
:01002C00B41F
:01002D00B41E
:01002E00B41D
:01002F00B41C
:01003000B41B
:01003100B41A
:01003200B419
:01003300B418
:01003400B417
:01003500B416
:01003600B415
:01003700B414
:01003800B413
:01003900B412
:01003A00B411
:01003B00B410
:01003C00B40F
:01003D00B40E
:01003E00B40D
:01003F00B40C
:01004000B40B
:01004100B40A
:01004200B409
:01004300B408
:01004400B407
:01004500B406
:01004600B405
:01004700B404
:01004800B403
:01004900B402
:01004A00B401
:01004B00B400
:01004C00B4FF
:01004D00B4FE
:01004E00B4FD
:01004F00B4FC
:01005000B4FB
:01005100B4FA
:01005200B4F9
:01005300B4F8
:01005400B4F7
:01005500B4F6
:01005600B4F5
:01005700B4F4
:01005800B4F3
:01005900B4F2
:01005A00B4F1
:01005B00B4F0
:01005C00B4EF
:01005D00B4EE
:01005E00B4ED
:01005F00B4EC
:01006000B4EB
:01006100B4EA
:01006200B4E9
:01006300B4E8
:01006400B4E7
:01006500B4E6
:01006600B4E5
:01006700B4E4
:01006800B4E3
:01006900B4E2
:01006A00B4E1
:01006B00B4E0
:01006C00B4DF
:01006D00B4DE
:01006E00B4DD
:01006F00B4DC
:01007000B4DB
:01007100B4DA
:01007200B4D9
:01007300B4D8
:01007400B4D7
:01007500B4D6
:01007600B4D5
:01007700B4D4
:01007800B4D3
:01007900B4D2
:01007A00B4D1
:01007B00B4D0
:01007C00B4CF
:01007D00B4CE
:01007E00B4CD
:01007F00B4CC
:01008000B4CB
:01008100B4CA
:01008200B4C9
:01008300B4C8
:01008400B4C7
:01008500B4C6
:01008600B4C5
:01008700B4C4
:01008800B4C3
:01008900B4C2
:01008A00B4C1
:01008B00B4C0
:01008C00B4BF
:01008D00B4BE
:01008E00B4BD
:01008F00B4BC
:01009000B4BB
:01009100B4BA
:01009200B4B9
:01009300B4B8
:01009400B4B7
:01009500B4B6
:01009600B4B5
:01009700B4B4
:01009800B4B3
:01009900B4B2
:01009A00B4B1
:01009B00B4B0
:01009C00B4AF
:01009D00B4AE
:01009E00B4AD
:01009F00B4AC
:0100A000B4AB
:0100A100B4AA
:0100A200B4A9
:0100A300B4A8
:0100A400B4A7
:0100A500B4A6
:0100A600B4A5
:0100A700B4A4
:0100A800B4A3
:0100A900B4A2
:0100AA00B4A1
:0100AB00B4A0
:0100AC00B49F
:0100AD00B49E
:0100AE00B49D
:0100AF00B49C
:0100B000B49B
:0100B100B49A
:0100B200B499
:0100B300B498
:0100B400B497
:0100B500B496
:0100B600B495
:0100B700B494
:0100B800B493
:0100B900B492
:0100BA00B491
:0100BB00B490
:0100BC00B48F
:0100BD00B48E
:0100BE00B48D
:0100BF00B48C
:0100C000B48B
:0100C100B48A
:0100C200B489
:0100C300B488
:0100C400B487
:0100C500B486
:0100C600B485
:0100C700B484
:0100C800B483
:0100C900B482
:0100CA00B481
:0100CB00B480
:0100CC00B47F
:0100CD00B47E
:0100CE00B47D
:0100CF00B47C
:0100D000B47B
:0100D100B47A
:0100D200B479
:0100D300B478
:0100D400B477
:0100D500B476
:0100D600B475
:0100D700B474
:0100D800B473
:0100D900B472
:0100DA00B471
:0100DB00B470
:0100DC00B46F
:0100DD00B46E
:0100DE00B46D
:0100DF00B46C
:0100E000B46B
:0100E100B46A
:0100E200B469
:0100E300B468
:0100E400B467
:0100E500B466
:0100E600B465
:0100E700B464
:0100E800B463
:0100E900B462
:0100EA00B461
:0100EB00B460
:0100EC00B45F
:0100ED00B45E
:0100EE00B45D
:0100EF00B45C
:0100F000B45B
:0100F100B45A
:0100F200B459
:0100F300B458
:0100F400B457
:0100F500B456
:0100F600B455
:0100F700B454
:0100F800B453
:0100F900B452
:0100FA00B451
:0100FB00B450
:0100FC00B44F
:0100FD00B44E
:0100FE00B44D
:0100FF00B44C
:01010000B44A
:01010100B449
:01010200B448
:01010300B447
:01010400B446
:01010500B445
:01010600B444
:01010700B443
:01010800B442
:01010900B441
:01010A00B440
:01010B00B43F
:01010C00B43E
:01010D00B43D
:01010E00B43C
:01010F00B43B
:01011000B43A
:01011100B439
:01011200B438
:01011300B437
:01011400B436
:01011500B435
:01011600B434
:01011700B433
:01011800B432
:01011900B431
:01011A00B430
:01011B00B42F
:01011C00B42E
:01011D00B42D
:01011E00B42C
:01011F00B42B
:01012000B42A
:01012100B429
:01012200B428
:01012300B427
:01012400B426
:01012500B425
:01012600B424
:01012700B522
:01012800B521
:01012900B520
:01012A00B420
:01012B00B41F
:01012C00B51D
:01012D00B51C
:01012E00B51B
:01012F00B41B
:01013000B41A
:01013100B518
:01013200B517
:01013300B417
:01013400B416
:01013500B613
:01013600B612
:01013700BB0C
:01013800BB0B
:01013900BB0A
:01013A00B60E
:01013B00B90A
:01013C00BB07
:01013D00BB06
:01013E00BA06
:01013F00B40B
:01014000B40A
:01014100B805
:01014200B804
:01014300B407
:01014400B406
:01014500C0F9
:01014600BEFA
:01014700CCEB
:01014800CCEA
:01014900CCE9
:01014A00BFF5
:01014B00C6ED
:01014C00CCE6
:01014D00CCE5
:01014E00CAE6
:01014F00B5FA
:01015000B4FA
:01015100BFEE
:01015200C0EC
:01015300B4F7
:01015400B4F6
:01015500D1D8
:01015600CCDC
:01015700E0C7
:01015800E1C5
:01015900E1C4
:01015A00CCD8
:01015B00DAC9
:01015C00E1C1
:01015D00E1C0
:01015E00DFC1
:01015F00B7E8
:01016000B4EA
:01016100C7D6
:01016200C8D4
:01016300B4E7
:01016400B5E5
:01016500E2B7
:01016600D3C5
:01016700EAAD
:01016800EDA9
:01016900EAAB
:01016A00D4C0
:01016B00E8AB
:01016C00EAA8
:01016D00EAA7
:01016E00E9A7
:01016F00B8D7
:01017000B4DA
:01017100CBC2
:01017200CCC0
:01017300B4D7
:01017400B5D5
:01017500E9A0
:01017600CDBB
:01017700E1A6
:01017800EF97
:01017900E1A4
:01017A00CDB7
:01017B00EC97
:01017C00E1A1
:01017D00E1A0
:01017E00DFA1
:01017F00B7C8
:01018000B4CA
:01018100CCB1
:01018200CCB0
:01018300B4C7
:01018400B5C5
:01018500EA8F
:01018600BFB9
:01018700CCAB
:01018800EC8A
:01018900CCA9
:01018A00BFB5
:01018B00EB88
:01018C00CCA6
:01018D00CCA5
:01018E00CAA6
:01018F00B5BA
:01019000B4BA
:01019100CCA1
:01019200CCA0
:01019300B4B7
:01019400B5B5
:01019500EA7F
:01019600B7B1
:01019700BCAB
:01019800EB7B
:01019900BCA9
:01019A00B7AD
:01019B00EA79
:01019C00BCA6
:01019D00BBA6
:01019E00BAA6
:01019F00B4AB
:0101A000B4AA
:0101A100CC91
:0101A200CC90
:0101A300B4A7
:0101A400B5A5
:0101A500EA6F
:0101A600B5A3
:0101A700B6A1
:0101A800EA6C
:0101A900B69F
:0101AA00B59F
:0101AB00EA69
:0101AC00B69C
:0101AD00B59C
:0101AE00B59B
:0101AF00B49B
:0101B000B49A
:0101B100CC81
:0101B200CC80
:0101B300B497
:0101B400B595
:0101B500EA5F
:0101B600B593
:0101B700B592
:0101B800EA5C
:0101B900B590
:0101BA00B58F
:0101BB00EA59
:0101BC00B58D
:0101BD00B48D
:0101BE00B48C
:0101BF00B48B
:0101C000B48A
:0101C100CC71
:0101C200CC70
:0101C300B487
:0101C400B585
:0101C500EA4F
:0101C600B583
:0101C700B582
:0101C800EA4C
:0101C900B580
:0101CA00B57F
:0101CB00EA49
:0101CC00B67C
:0101CD00B47D
:0101CE00B47C
:0101CF00B47B
:0101D000B47A
:0101D100CC61
:0101D200CC60
:0101D300B477
:0101D400B575
:0101D500EA3F
:0101D600B573
:0101D700B572
:0101D800EA3C
:0101D900B570
:0101DA00B56F
:0101DB00EA39
:0101DC00BC66
:0101DD00B968
:0101DE00B46C
:0101DF00B46B
:0101E000B46A
:0101E100CC51
:0101E200CC50
:0101E300B467
:0101E400B565
:0101E500EA2F
:0101E600B563
:0101E700B562
:0101E800EA2C
:0101E900B560
:0101EA00B55F
:0101EB00EB28
:0101EC00CC46
:0101ED00C64B
:0101EE00B45C
:0101EF00B45B
:0101F000B45A
:0101F100CC41
:0101F200CC40
:0101F300B457
:0101F400B555
:0101F500EA1F
:0101F600B553
:0101F700B552
:0101F800EA1C
:0101F900B550
:0101FA00B54F
:0101FB00EC17
:0101FC00E121
:0101FD00D829
:0101FE00B44C
:0101FF00B44B
:01020000B449
:01020100CC30
:01020200CC2F
:01020300B446
:01020400B544
:01020500EA0E
:01020600B542
:01020700B541
:01020800EA0B
:01020900B53F
:01020A00B53E
:01020B00ED05
:01020C00EA07
:01020D00E20E
:01020E00B43B
:01020F00B43A
:01021000B439
:01021100CC20
:01021200CC1F
:01021300B436
:01021400B534
:01021500EAFE
:01021600B532
:01021700B531
:01021800EAFB
:01021900B52F
:01021A00B52E
:01021B00EDF5
:01021C00E100
:01021D00D808
:01021E00B42B
:01021F00B42A
:01022000B429
:01022100CC10
:01022200CC0F
:01022300B426
:01022400B524
:01022500EAEE
:01022600B522
:01022700B521
:01022800EAEB
:01022900B51F
:01022A00B51E
:01022B00EBE7
:01022C00CC05
:01022D00C60A
:01022E00B41B
:01022F00B41A
:01023000B419
:01023100CC00
:01023200CCFF
:01023300B416
:01023400B514
:01023500EADE
:01023600B512
:01023700B511
:01023800EADB
:01023900B50F
:01023A00B50E
:01023B00EAD8
:01023C00BC05
:01023D00B907
:01023E00B40B
:01023F00B40A
:01024000B409
:01024100CCF0
:01024200CEED
:01024300B406
:01024400B504
:01024500EBCD
:01024600B502
:01024700B501
:01024800EACB
:01024900B5FF
:01024A00B5FE
:01024B00EAC8
:01024C00B6FB
:01024D00B4FC
:01024E00B4FB
:01024F00B4FA
:01025000B4F9
:01025100CBE1
:01025200D1DA
:01025300B4F6
:01025400B6F3
:01025500EABE
:01025600B5F2
:01025700B5F1
:01025800EABB
:01025900B5EF
:01025A00B5EE
:01025B00EAB8
:01025C00B5EC
:01025D00B4EC
:01025E00B4EB
:01025F00B4EA
:01026000B4E9
:01026100C7D5
:01026200D7C4
:01026300B4E6
:01026400B8E1
:01026500E9AF
:01026600B5E2
:01026700B5E1
:01026800EAAB
:01026900B5DF
:01026A00B5DE
:01026B00EAA8
:01026C00B5DC
:01026D00B4DC
:01026E00B4DB
:01026F00B4DA
:01027000B4D9
:01027100C2CA
:01027200DFAC
:01027300B6D4
:01027400BFCA
:01027500E6A2
:01027600B4D3
:01027700B5D1
:01027800EA9B
:01027900B5CF
:01027A00B5CE
:01027B00EA98
:01027C00B6CB
:01027D00B5CB
:01027E00B5CA
:01027F00B4CA
:01028000B4C9
:01028100BEBE
:01028200E794
:01028300BEBC
:01028400CDAC
:01028500E197
:01028600B4C3
:01028700B5C1
:01028800EA8B
:01028900B5BF
:01028A00B5BE
:01028B00EA88
:01028C00BCB5
:01028D00BBB5
:01028E00BAB5
:01028F00B4BA
:01029000B4B9
:01029100B9B3
:01029200EA81
:01029300CF9B
:01029400DF8A
:01029500D791
:01029600B4B3
:01029700B5B1
:01029800EA7B
:01029900B5AF
:01029A00B5AE
:01029B00EB77
:01029C00CC95
:01029D00CC94
:01029E00CA95
:01029F00B5A9
:0102A000B4A9
:0102A100B6A6
:0102A200E576
:0102A300E377
:0102A400EA6F
:0102A500C890
:0102A600B4A3
:0102A700B5A1
:0102A800E96C
:0102A900B59F
:0102AA00B59E
:0102AB00EC66
:0102AC00E170
:0102AD00E16F
:0102AE00DF70
:0102AF00B797
:0102B000B499
:0102B100B498
:0102B200D576
:0102B300EA60
:0102B400E564
:0102B500BC8C
:0102B600B493
:0102B700B591
:0102B800E263
:0102B900B58F
:0102BA00B58E
:0102BB00E959
:0102BC00EA57
:0102BD00EA56
:0102BE00E956
:0102BF00B886
:0102C000B489
:0102C100B488
:0102C200C378
:0102C300DF5B
:0102C400D465
:0102C500B682
:0102C600B483
:0102C700B482
:0102C800D263
:0102C900B480
:0102CA00B57E
:0102CB00DB57
:0102CC00E150
:0102CD00E14F
:0102CE00DF50
:0102CF00B777
:0102D000B479
:0102D100B478
:0102D200B873
:0102D300CA60
:0102D400C168
:0102D500B474
:0102D600B473
:0102D700B472
:0102D800C065
:0102D900B470
:0102DA00B46F
:0102DB00C75B
:0102DC00CC55
:0102DD00CC54
:0102DE00CA55
:0102DF00B569
:0102E000B469
:0102E100B468
:0102E200B467
:0102E300BA60
:0102E400B762
:0102E500B464
:0102E600B463
:0102E700B462
:0102E800B65F
:0102E900B460
:0102EA00B45F
:0102EB00B959
:0102EC00BB56
:0102ED00BB55
:0102EE00BA55
:0102EF00B45A
:0102F000B459
:0102F100B458
:0102F200B457
:0102F300B555
:0102F400B455
:0102F500B454
:0102F600B453
:0102F700B452
:0102F800B451
:0102F900B450
:0102FA00B44F
:0102FB00B44E
:0102FC00B54C
:0102FD00B54B
:0102FE00B54A
:0102FF00B44A
:01030000B448
:01030100B447
:01030200B446
:01030300B445
:01030400B444
:01030500B443
:01030600B442
:01030700B441
:01030800B440
:01030900B43F
:01030A00B43E
:01030B00B43D
:01030C00B43C
:01030D00B43B
:01030E00B43A
:01030F00B439
:01031000B438
:01031100B437
:01031200B436
:01031300B435
:01031400B434
:01031500B433
:01031600B432
:01031700B431
:01031800B430
:01031900B42F
:01031A00B42E
:01031B00B42D
:01031C00B42C
:01031D00B42B
:01031E00B42A
:01031F00B429
:01032000B428
:01032100B427
:01032200B426
:01032300B425
:01032400B424
:01032500B423
:01032600B422
:01032700B421
:01032800B420
:01032900B41F
:01032A00B41E
:01032B00B41D
:01032C00B41C
:01032D00B41B
:01032E00B41A
:01032F00B419
:01033000B418
:01033100B417
:01033200B416
:01033300B415
:01033400B414
:01033500B413
:01033600B412
:01033700B411
:01033800B410
:01033900B40F
:01033A00B40E
:01033B00B40D
:01033C00B40C
:01033D00B40B
:01033E00B40A
:01033F00B409
:01034000B408
:01034100B407
:01034200B406
:01034300B405
:01034400B404
:01034500B403
:01034600B402
:01034700B401
:01034800B400
:01034900B4FF
:01034A00B4FE
:01034B00B4FD
:01034C00B4FC
:01034D00B4FB
:01034E00B4FA
:01034F00B4F9
:01035000B4F8
:01035100B4F7
:01035200B4F6
:01035300B4F5
:01035400B4F4
:01035500B4F3
:01035600B4F2
:01035700B4F1
:01035800B4F0
:01035900B4EF
:01035A00B4EE
:01035B00B4ED
:01035C00B4EC
:01035D00B4EB
:01035E00B4EA
:01035F00B4E9
:01036000B4E8
:01036100B4E7
:01036200B4E6
:01036300B4E5
:01036400B4E4
:01036500B4E3
:01036600B4E2
:01036700B4E1
:01036800B4E0
:01036900B4DF
:01036A00B4DE
:01036B00B4DD
:01036C00B4DC
:01036D00B4DB
:01036E00B4DA
:01036F00B4D9
:01037000B4D8
:01037100B4D7
:01037200B4D6
:01037300B4D5
:01037400B4D4
:01037500B4D3
:01037600B4D2
:01037700B4D1
:01037800B4D0
:01037900B4CF
:01037A00B4CE
:01037B00B4CD
:01037C00B4CC
:01037D00B4CB
:01037E00B4CA
:01037F00B4C9
:01038000B4C8
:01038100B4C7
:01038200B4C6
:01038300B4C5
:01038400B4C4
:01038500B4C3
:01038600B4C2
:01038700B4C1
:01038800B4C0
:01038900B4BF
:01038A00B4BE
:01038B00B4BD
:01038C00B4BC
:01038D00B4BB
:01038E00B4BA
:01038F00B4B9
:01039000B4B8
:01039100B4B7
:01039200B4B6
:01039300B4B5
:01039400B4B4
:01039500B4B3
:01039600B4B2
:01039700B4B1
:01039800B4B0
:01039900B4AF
:01039A00B4AE
:01039B00B4AD
:01039C00B4AC
:01039D00B4AB
:01039E00B4AA
:01039F00B4A9
:0103A000B4A8
:0103A100B4A7
:0103A200B4A6
:0103A300B4A5
:0103A400B4A4
:0103A500B4A3
:0103A600B4A2
:0103A700B4A1
:0103A800B4A0
:0103A900B49F
:0103AA00B49E
:0103AB00B49D
:0103AC00B49C
:0103AD00B49B
:0103AE00B49A
:0103AF00B499
:0103B000B498
:0103B100B497
:0103B200B496
:0103B300B495
:0103B400B494
:0103B500B493
:0103B600B492
:0103B700B491
:0103B800B490
:0103B900B48F
:0103BA00B48E
:0103BB00B48D
:0103BC00B48C
:0103BD00B48B
:0103BE00B48A
:0103BF00B489
:0103C000B488
:0103C100B487
:0103C200B486
:0103C300B485
:0103C400B484
:0103C500B483
:0103C600B482
:0103C700B481
:0103C800B480
:0103C900B47F
:0103CA00B47E
:0103CB00B47D
:0103CC00B47C
:0103CD00B47B
:0103CE00B47A
:0103CF00B479
:0103D000B478
:0103D100B477
:0103D200B476
:0103D300B475
:0103D400B474
:0103D500B473
:0103D600B472
:0103D700B471
:0103D800B470
:0103D900B46F
:0103DA00B46E
:0103DB00B46D
:0103DC00B46C
:0103DD00B46B
:0103DE00B46A
:0103DF00B469
:0103E000B468
:0103E100B467
:0103E200B466
:0103E300B465
:0103E400B464
:0103E500B463
:0103E600B462
:0103E700B461
:0103E800B460
:0103E900B45F
:0103EA00B45E
:0103EB00B45D
:0103EC00B45C
:0103ED00B45B
:0103EE00B45A
:0103EF00B459
:0103F000B458
:0103F100B457
:0103F200B456
:0103F300B455
:0103F400B454
:0103F500B453
:0103F600B452
:0103F700B451
:0103F800B450
:0103F900B44F
:0103FA00B44E
:0103FB00B44D
:0103FC00B44C
:0103FD00B44B
:0103FE00B44A
:0103FF00B449
:0104000000FB
:0104010000FA
:0104020000F9
:0104030000F8
:0104040000F7
:0104050000F6
:0104060000F5
:0104070000F4
:0104080000F3
:0104090000F2
:01040A0000F1
:01040B0000F0
:01040C0000EF
:01040D0000EE
:01040E0000ED
:01040F0000EC
:0104100000EB
:0104110000EA
:0104120000E9
:0104130000E8
:0104140000E7
:0104150000E6
:0104160000E5
:0104170000E4
:0104180000E3
:0104190000E2
:01041A0000E1
:01041B0000E0
:01041C0000DF
:01041D0000DE
:01041E0000DD
:01041F0000DC
:0104200000DB
:0104210000DA
:0104220000D9
:0104230000D8
:0104240000D7
:0104250000D6
:0104260000D5
:0104270000D4
:0104280000D3
:0104290000D2
:01042A0000D1
:01042B0000D0
:01042C0000CF
:01042D0000CE
:01042E0000CD
:01042F0000CC
:0104300000CB
:0104310000CA
:0104320000C9
:0104330000C8
:0104340000C7
:0104350000C6
:0104360000C5
:0104370000C4
:0104380000C3
:0104390000C2
:01043A0000C1
:01043B0000C0
:01043C0000BF
:01043D0000BE
:01043E0000BD
:01043F0000BC
:0104400000BB
:0104410000BA
:0104420000B9
:0104430000B8
:0104440000B7
:0104450000B6
:0104460000B5
:0104470000B4
:0104480000B3
:0104490000B2
:01044A0000B1
:01044B0000B0
:01044C0000AF
:01044D0000AE
:01044E0000AD
:01044F0000AC
:0104500000AB
:0104510000AA
:0104520000A9
:0104530000A8
:0104540000A7
:0104550000A6
:0104560000A5
:0104570000A4
:0104580000A3
:0104590000A2
:01045A0000A1
:01045B0000A0
:01045C00009F
:01045D00009E
:01045E00009D
:01045F00009C
:01046000009B
:01046100009A
:010462000099
:010463000098
:010464000097
:010465000096
:010466000095
:010467000094
:010468000093
:010469000092
:01046A000091
:01046B000090
:01046C00008F
:01046D00008E
:01046E00008D
:01046F00008C
:01047000008B
:01047100008A
:010472000089
:010473000088
:010474000087
:010475000086
:010476000085
:010477000084
:010478000083
:010479000082
:01047A000081
:01047B000080
:01047C00007F
:01047D00007E
:01047E00007D
:01047F00007C
:01048000007B
:01048100007A
:010482000079
:010483000078
:010484000077
:010485000076
:010486000075
:010487000074
:010488000073
:010489000072
:01048A000071
:01048B000070
:01048C00006F
:01048D00006E
:01048E00006D
:01048F00006C
:01049000006B
:01049100006A
:010492000069
:010493000068
:010494000067
:010495000066
:010496000065
:010497000064
:010498000063
:010499000062
:01049A000061
:01049B000060
:01049C00005F
:01049D00005E
:01049E00005D
:01049F00005C
:0104A000005B
:0104A100005A
:0104A2000059
:0104A3000058
:0104A4000057
:0104A5000056
:0104A6000055
:0104A7000054
:0104A8000053
:0104A9000052
:0104AA000051
:0104AB000050
:0104AC00004F
:0104AD00004E
:0104AE00004D
:0104AF00004C
:0104B000004B
:0104B100004A
:0104B2000049
:0104B3000048
:0104B4000047
:0104B5000046
:0104B6000045
:0104B7000044
:0104B8000043
:0104B9000042
:0104BA000041
:0104BB000040
:0104BC00003F
:0104BD00003E
:0104BE00003D
:0104BF00003C
:0104C000003B
:0104C100003A
:0104C2000039
:0104C3000038
:0104C4000037
:0104C5000036
:0104C6000035
:0104C7000034
:0104C8000033
:0104C9000032
:0104CA000031
:0104CB000030
:0104CC00002F
:0104CD00002E
:0104CE00002D
:0104CF00002C
:0104D000002B
:0104D100002A
:0104D2000029
:0104D3000028
:0104D4000027
:0104D5000026
:0104D6000025
:0104D7000024
:0104D8000023
:0104D9000022
:0104DA000021
:0104DB000020
:0104DC00001F
:0104DD00001E
:0104DE00001D
:0104DF00001C
:0104E000001B
:0104E100001A
:0104E2000019
:0104E3000018
:0104E4000017
:0104E5000016
:0104E6000015
:0104E7000014
:0104E8000013
:0104E9000012
:0104EA000011
:0104EB000010
:0104EC00000F
:0104ED00000E
:0104EE00000D
:0104EF00000C
:0104F000000B
:0104F100000A
:0104F2000009
:0104F3000008
:0104F4000007
:0104F5000006
:0104F6000005
:0104F7000004
:0104F8000003
:0104F9000002
:0104FA000001
:0104FB000000
:0104FC0000FF
:0104FD0000FE
:0104FE0000FD
:0104FF0000FC
:0105000000FA
:0105010000F9
:0105020000F8
:0105030000F7
:0105040000F6
:0105050000F5
:0105060000F4
:0105070000F3
:0105080000F2
:0105090000F1
:01050A0000F0
:01050B0000EF
:01050C0000EE
:01050D0000ED
:01050E0000EC
:01050F0000EB
:0105100000EA
:0105110000E9
:0105120000E8
:0105130000E7
:0105140000E6
:0105150000E5
:0105160000E4
:0105170004DF
:0105180004DE
:0105190004DD
:01051A0000E0
:01051B0002DD
:01051C0004DA
:01051D0004D9
:01051E0004D8
:01051F0000DB
:0105200000DA
:0105210004D5
:0105220006D2
:0105230000D7
:0105240000D6
:0105250008CD
:010526000CC8
:010527001CB7
:010528001CB6
:010529001CB5
:01052A000EC2
:01052B0018B7
:01052C001CB2
:01052D001CB1
:01052E001CB0
:01052F0002C9
:0105300000CA
:010531001CAD
:010532001EAA
:0105330000C7
:0105340002C4
:010535002C99
:010536003C88
:010537005C67
:010538005C66
:010539005C65
:01053A00427E
:01053B005669
:01053C005C62
:01053D005C61
:01053E005C60
:01053F000CAF
:0105400000BA
:010541005267
:010542005662
:0105430000B7
:0105440008AE
:010545006451
:010546008A2A
:01054700981B
:01054800981A
:010549009A17
:01054A008C24
:01054B00A609
:01054C009816
:01054D009815
:01054E00A20A
:01054F002487
:0105500000AA
:010551008E1B
:010552009216
:0105530000A7
:010554001492
:010555008025
:01055600AAFA
:010557007C27
:010558008220
:010559007C25
:01055A00A6FA
:01055B00BAE5
:01055C007A24
:01055D007825
:01055E009606
:01055F003863
:01056000009A
:01056100A8F1
:01056200A8F0
:010563000097
:010564001C7A
:010565005C39
:010566006430
:01056700068D
:010568003260
:01056900048D
:01056A005E32
:01056B007A15
:01056C00028C
:01056D00008D
:01056E00206C
:01056F003259
:01057000008A
:01057100A2E7
:01057200A0E8
:010573000087
:010574001C6A
:010575002065
:0105760092F2
:010577007E05
:010578000C76
:010579007E03
:01057A0094EC
:01057B00304F
:01057C007A04
:01057D007805
:01057E0096E6
:01057F003843
:01058000007A
:0105810098E1
:0105820098E0
:010583000077
:010584001C5A
:010585000471
:010586007202
:01058700A2D1
:010588001C56
:01058900A2CF
:01058A0072FE
:01058B002847
:01058C00A0CE
:01058D0098D5
:01058E00A2CA
:01058F002447
:01059000006A
:0105910096D3
:0105920098D0
:010593000067
:010594001C4A
:010595000263
:010596003034
:010597006EF5
:010598001052
:010599006EF3
:01059A003030
:01059B00124D
:01059C006EF0
:01059D005C01
:01059E005C00
:01059F000C4F
:0105A000005A
:0105A10098C1
:0105A20098C0
:0105A3000057
:0105A4001C3A
:0105A5000253
:0105A6002232
:0105A700361D
:0105A800044E
:0105A900361B
:0105AA00222E
:0105AB00024D
:0105AC003618
:0105AD001C31
:0105AE001C30
:0105AF000249
:0105B000004A
:0105B10098B1
:0105B20098B0
:0105B3000047
:0105B4001C2A
:0105B5000045
:0105B6001C28
:0105B7002023
:0105B8000042
:0105B9002021
:0105BA001C24
:0105BB00003F
:0105BC001C22
:0105BD000439
:0105BE000438
:0105BF00003B
:0105C000003A
:0105C10098A1
:0105C20098A0
:0105C3000037
:0105C4001C1A
:0105C5000035
:0105C6001C18
:0105C7001C17
:0105C8000032
:0105C9001C15
:0105CA001C14
:0105CB00022D
:0105CC0036F8
:0105CD001815
:0105CE00002C
:0105CF00002B
:0105D000002A
:0105D1009891
:0105D2009890
:0105D3000027
:0105D4001C0A
:0105D5000025
:0105D6001C08
:0105D7001C07
:0105D8000022
:0105D9001C05
:0105DA001C04
:0105DB00100F
:0105DC006EB0
:0105DD0058C5
:0105DE00021A
:0105DF00001B
:0105E000001A
:0105E1009881
:0105E2009880
:0105E3000017
:0105E4001CFA
:0105E5000015
:0105E6001CF8
:0105E7001CF7
:0105E8000012
:0105E9001CF5
:0105EA001EF2
:0105EB0026E9
:0105EC00A06E
:0105ED00A865
:0105EE000804
:0105EF00000B
:0105F000000A
:0105F1009871
:0105F2009870
:0105F3000007
:0105F4001CEA
:0105F5000005
:0105F6001CE8
:0105F7001CE7
:0105F8000002
:0105F9001CE5
:0105FA0020E0
:0105FB0034CB
:0105FC007C82
:0105FD00B449
:0105FE000EEE
:0105FF0000FB
:0106000000F9
:010601009860
:01060200985F
:0106030000F6
:010604001CD9
:0106050000F4
:010606001CD7
:010607001CD6
:0106080000F1
:010609001CD4
:01060A0020CF
:01060B0030BE
:01060C0004E9
:01060D00529A
:01060E000EDD
:01060F0000EA
:0106100000E9
:010611009850
:01061200984F
:0106130000E6
:010614001CC9
:0106150000E4
:010616001CC7
:010617001CC6
:0106180000E1
:010619001CC4
:01061A0020BF
:01061B0034AA
:01061C007C61
:01061D00B22A
:01061E000ECD
:01061F0000DA
:0106200000D9
:010621009840
:01062200983F
:0106230000D6
:010624001CB9
:0106250000D4
:010626001CB7
:010627001CB6
:0106280000D1
:010629001CB4
:01062A001EB1
:01062B0028A6
:01062C00A02D
:01062D00A626
:01062E0008C3
:01062F0000CA
:0106300000C9
:010631009830
:010632009E29
:0106330000C6
:010634001EA7
:0106350004C0
:010636001EA5
:010637001CA6
:0106380000C1
:010639001CA4
:01063A001CA3
:01063B0010AE
:01063C006E4F
:01063D005864
:01063E0002B9
:01063F0000BA
:0106400000B9
:010641009820
:01064200A80F
:0106430000B6
:01064400288D
:0106450008AC
:010646001E95
:010647001C96
:0106480000B1
:010649001C94
:01064A001C93
:01064B0002AC
:01064C003677
:01064D001894
:01064E0000AB
:01064F0000AA
:0106500000A9
:01065100A404
:01065200B2F5
:0106530000A6
:010654003C69
:01065500188C
:010656001E85
:010657001C86
:0106580000A1
:010659001C84
:01065A001C83
:01065B00009E
:01065C00207D
:01065D00029A
:01065E00009B
:01065F00009A
:010660000099
:01066100AAEE
:01066200B8DF
:010663000C8A
:010664006431
:010665003A5A
:010666001A79
:010667001C76
:010668000091
:010669001C74
:01066A001C73
:01066B00008E
:01066C00206D
:01066D000488
:01066E000487
:01066F00008A
:010670000089
:010671009CEC
:01067200A8DF
:01067300384E
:01067400A2E3
:01067500681C
:010676001271
:010677001C66
:010678000081
:010679001C64
:01067A001C63
:01067B00027C
:01067C003647
:01067D001C60
:01067E001C5F
:01067F000278
:010680000079
:0106810086F2
:010682006611
:0106830082F4
:01068400CEA7
:010685009ED6
:010686000A69
:010687001C56
:010688000071
:010689001C54
:01068A001C53
:01068B00105E
:01068C006EFF
:01068D005C10
:01068E005C0F
:01068F000C5E
:010690000069
:010691006800
:010692000E59
:01069300B0B6
:01069400AABB
:01069500CE96
:01069600065D
:010697001C46
:01069800045D
:010699001C44
:01069A001E41
:01069B002638
:01069C00A0BD
:01069D0098C4
:01069E00A2B9
:01069F002436
:0106A0000059
:0106A1003E1A
:0106A2008CCB
:0106A30078DE
:0106A400262F
:0106A500CC88
:0106A6000251
:0106A7001C36
:0106A8001E33
:0106A9001C34
:0106AA001E31
:0106AB002E20
:0106AC007AD3
:0106AD0078D4
:0106AE0096B5
:0106AF003812
:0106B0000049
:0106B1001830
:0106B200D077
:0106B3001630
:0106B40072D3
:0106B50090B4
:0106B6000043
:0106B7001C26
:0106B80056EB
:0106B9001C24
:0106BA001E21
:0106BB0078C6
:0106BC00023B
:0106BD00003C
:0106BE00201B
:0106BF003208
:0106C0000039
:0106C1000434
:0106C200B087
:0106C30092A4
:0106C400BC79
:0106C50046EE
:0106C6000033
:0106C700141E
:0106C8007EB3
:0106C900141C
:0106CA001817
:0106CB00BA74
:0106CC0078B5
:0106CD0078B4
:0106CE009695
:0106CF0038F2
:0106D0000029
:0106D1000028
:0106D2005CCB
:0106D300A482
:0106D400988D
:0106D5001410
:0106D6000023
:0106D700081A
:0106D80064BD
:0106D9000818
:0106DA000C13
:0106DB00A876
:0106DC009885
:0106DD009884
:0106DE00A279
:0106DF0024F6
:0106E0000019
:0106E1000018
:0106E2001AFD
:0106E3005CBA
:0106E40044D1
:0106E5000212
:0106E6000013
:0106E7000210
:0106E8002AE7
:0106E900020E
:0106EA00020D
:0106EB0058B6
:0106EC005CB1
:0106ED005CB0
:0106EE005CAF
:0106EF000CFE
:0106F0000009
:0106F1000008
:0106F2000205
:0106F3001AEC
:0106F4000EF7
:0106F5000004
:0106F6000003
:0106F7000002
:0106F80008F9
:0106F9000000
:0106FA0000FF
:0106FB0018E6
:0106FC001CE1
:0106FD001CE0
:0106FE001CDF
:0106FF0002F8
:0107000000F8
:0107010000F7
:0107020000F6
:0107030004F1
:0107040000F4
:0107050000F3
:0107060000F2
:0107070000F1
:0107080000F0
:0107090000EF
:01070A0000EE
:01070B0002EB
:01070C0004E8
:01070D0004E7
:01070E0004E6
:01070F0000E9
:0107100000E8
:0107110000E7
:0107120000E6
:0107130000E5
:0107140000E4
:0107150000E3
:0107160000E2
:0107170000E1
:0107180000E0
:0107190000DF
:01071A0000DE
:01071B0000DD
:01071C0000DC
:01071D0000DB
:01071E0000DA
:01071F0000D9
:0107200000D8
:0107210000D7
:0107220000D6
:0107230000D5
:0107240000D4
:0107250000D3
:0107260000D2
:0107270000D1
:0107280000D0
:0107290000CF
:01072A0000CE
:01072B0000CD
:01072C0000CC
:01072D0000CB
:01072E0000CA
:01072F0000C9
:0107300000C8
:0107310000C7
:0107320000C6
:0107330000C5
:0107340000C4
:0107350000C3
:0107360000C2
:0107370000C1
:0107380000C0
:0107390000BF
:01073A0000BE
:01073B0000BD
:01073C0000BC
:01073D0000BB
:01073E0000BA
:01073F0000B9
:0107400000B8
:0107410000B7
:0107420000B6
:0107430000B5
:0107440000B4
:0107450000B3
:0107460000B2
:0107470000B1
:0107480000B0
:0107490000AF
:01074A0000AE
:01074B0000AD
:01074C0000AC
:01074D0000AB
:01074E0000AA
:01074F0000A9
:0107500000A8
:0107510000A7
:0107520000A6
:0107530000A5
:0107540000A4
:0107550000A3
:0107560000A2
:0107570000A1
:0107580000A0
:01075900009F
:01075A00009E
:01075B00009D
:01075C00009C
:01075D00009B
:01075E00009A
:01075F000099
:010760000098
:010761000097
:010762000096
:010763000095
:010764000094
:010765000093
:010766000092
:010767000091
:010768000090
:01076900008F
:01076A00008E
:01076B00008D
:01076C00008C
:01076D00008B
:01076E00008A
:01076F000089
:010770000088
:010771000087
:010772000086
:010773000085
:010774000084
:010775000083
:010776000082
:010777000081
:010778000080
:01077900007F
:01077A00007E
:01077B00007D
:01077C00007C
:01077D00007B
:01077E00007A
:01077F000079
:010780000078
:010781000077
:010782000076
:010783000075
:010784000074
:010785000073
:010786000072
:010787000071
:010788000070
:01078900006F
:01078A00006E
:01078B00006D
:01078C00006C
:01078D00006B
:01078E00006A
:01078F000069
:010790000068
:010791000067
:010792000066
:010793000065
:010794000064
:010795000063
:010796000062
:010797000061
:010798000060
:01079900005F
:01079A00005E
:01079B00005D
:01079C00005C
:01079D00005B
:01079E00005A
:01079F000059
:0107A0000058
:0107A1000057
:0107A2000056
:0107A3000055
:0107A4000054
:0107A5000053
:0107A6000052
:0107A7000051
:0107A8000050
:0107A900004F
:0107AA00004E
:0107AB00004D
:0107AC00004C
:0107AD00004B
:0107AE00004A
:0107AF000049
:0107B0000048
:0107B1000047
:0107B2000046
:0107B3000045
:0107B4000044
:0107B5000043
:0107B6000042
:0107B7000041
:0107B8000040
:0107B900003F
:0107BA00003E
:0107BB00003D
:0107BC00003C
:0107BD00003B
:0107BE00003A
:0107BF000039
:0107C0000038
:0107C1000037
:0107C2000036
:0107C3000035
:0107C4000034
:0107C5000033
:0107C6000032
:0107C7000031
:0107C8000030
:0107C900002F
:0107CA00002E
:0107CB00002D
:0107CC00002C
:0107CD00002B
:0107CE00002A
:0107CF000029
:0107D0000028
:0107D1000027
:0107D2000026
:0107D3000025
:0107D4000024
:0107D5000023
:0107D6000022
:0107D7000021
:0107D8000020
:0107D900001F
:0107DA00001E
:0107DB00001D
:0107DC00001C
:0107DD00001B
:0107DE00001A
:0107DF000019
:0107E0000018
:0107E1000017
:0107E2000016
:0107E3000015
:0107E4000014
:0107E5000013
:0107E6000012
:0107E7000011
:0107E8000010
:0107E900000F
:0107EA00000E
:0107EB00000D
:0107EC00000C
:0107ED00000B
:0107EE00000A
:0107EF000009
:0107F0000008
:0107F1000007
:0107F2000006
:0107F3000005
:0107F4000004
:0107F5000003
:0107F6000002
:0107F7000001
:0107F8000000
:0107F90000FF
:0107FA0000FE
:0107FB0000FD
:0107FC0000FC
:0107FD0000FB
:0107FE0000FA
:0107FF0000F9
:0108000000F7
:0108010000F6
:0108020000F5
:0108030000F4
:0108040000F3
:0108050000F2
:0108060000F1
:0108070000F0
:0108080000EF
:0108090000EE
:01080A0000ED
:01080B0000EC
:01080C0000EB
:01080D0000EA
:01080E0000E9
:01080F0000E8
:0108100000E7
:0108110000E6
:0108120000E5
:0108130000E4
:0108140000E3
:0108150000E2
:0108160000E1
:0108170000E0
:0108180000DF
:0108190000DE
:01081A0000DD
:01081B0000DC
:01081C0000DB
:01081D0000DA
:01081E0000D9
:01081F0000D8
:0108200000D7
:0108210000D6
:0108220000D5
:0108230000D4
:0108240000D3
:0108250000D2
:0108260000D1
:0108270000D0
:0108280000CF
:0108290000CE
:01082A0000CD
:01082B0000CC
:01082C0000CB
:01082D0000CA
:01082E0000C9
:01082F0000C8
:0108300000C7
:0108310000C6
:0108320000C5
:0108330000C4
:0108340000C3
:0108350000C2
:0108360000C1
:0108370000C0
:0108380000BF
:0108390000BE
:01083A0000BD
:01083B0000BC
:01083C0000BB
:01083D0000BA
:01083E0000B9
:01083F0000B8
:0108400000B7
:0108410000B6
:0108420000B5
:0108430000B4
:0108440000B3
:0108450000B2
:0108460000B1
:0108470000B0
:0108480000AF
:0108490000AE
:01084A0000AD
:01084B0000AC
:01084C0000AB
:01084D0000AA
:01084E0000A9
:01084F0000A8
:0108500000A7
:0108510000A6
:0108520000A5
:0108530000A4
:0108540000A3
:0108550000A2
:0108560000A1
:0108570000A0
:01085800009F
:01085900009E
:01085A00009D
:01085B00009C
:01085C00009B
:01085D00009A
:01085E000099
:01085F000098
:010860000097
:010861000096
:010862000095
:010863000094
:010864000093
:010865000092
:010866000091
:010867000090
:01086800008F
:01086900008E
:01086A00008D
:01086B00008C
:01086C00008B
:01086D00008A
:01086E000089
:01086F000088
:010870000087
:010871000086
:010872000085
:010873000084
:010874000083
:010875000082
:010876000081
:010877000080
:01087800007F
:01087900007E
:01087A00007D
:01087B00007C
:01087C00007B
:01087D00007A
:01087E000079
:01087F000078
:010880000077
:010881000076
:010882000075
:010883000074
:010884000073
:010885000072
:010886000071
:010887000070
:01088800006F
:01088900006E
:01088A00006D
:01088B00006C
:01088C00006B
:01088D00006A
:01088E000069
:01088F000068
:010890000067
:010891000066
:010892000065
:010893000064
:010894000063
:010895000062
:010896000061
:010897000060
:01089800005F
:01089900005E
:01089A00005D
:01089B00005C
:01089C00005B
:01089D00005A
:01089E000059
:01089F000058
:0108A0000057
:0108A1000056
:0108A2000055
:0108A3000054
:0108A4000053
:0108A5000052
:0108A6000051
:0108A7000050
:0108A800004F
:0108A900004E
:0108AA00004D
:0108AB00004C
:0108AC00004B
:0108AD00004A
:0108AE000049
:0108AF000048
:0108B0000047
:0108B1000046
:0108B2000045
:0108B3000044
:0108B4000043
:0108B5000042
:0108B6000041
:0108B7000040
:0108B800003F
:0108B900003E
:0108BA00003D
:0108BB00003C
:0108BC00003B
:0108BD00003A
:0108BE000039
:0108BF000038
:0108C0000037
:0108C1000036
:0108C2000035
:0108C3000034
:0108C4000033
:0108C5000032
:0108C6000031
:0108C7000030
:0108C800002F
:0108C900002E
:0108CA00002D
:0108CB00002C
:0108CC00002B
:0108CD00002A
:0108CE000029
:0108CF000028
:0108D0000027
:0108D1000026
:0108D2000025
:0108D3000024
:0108D4000023
:0108D5000022
:0108D6000021
:0108D7000020
:0108D800001F
:0108D900001E
:0108DA00001D
:0108DB00001C
:0108DC00001B
:0108DD00001A
:0108DE000019
:0108DF000018
:0108E0000017
:0108E1000016
:0108E2000015
:0108E3000014
:0108E4000013
:0108E5000012
:0108E6000011
:0108E7000010
:0108E800000F
:0108E900000E
:0108EA00000D
:0108EB00000C
:0108EC00000B
:0108ED00000A
:0108EE000009
:0108EF000008
:0108F0000007
:0108F1000006
:0108F2000005
:0108F3000004
:0108F4000003
:0108F5000002
:0108F6000001
:0108F7000000
:0108F80000FF
:0108F90000FE
:0108FA0000FD
:0108FB0000FC
:0108FC0000FB
:0108FD0000FA
:0108FE0000F9
:0108FF0000F8
:0109000000F6
:0109010000F5
:0109020000F4
:0109030000F3
:0109040000F2
:0109050000F1
:0109060000F0
:0109070000EF
:0109080000EE
:0109090000ED
:01090A0000EC
:01090B0000EB
:01090C0000EA
:01090D0000E9
:01090E0000E8
:01090F0000E7
:0109100000E6
:0109110000E5
:0109120000E4
:0109130000E3
:0109140000E2
:0109150000E1
:0109160000E0
:0109170000DF
:0109180000DE
:0109190000DD
:01091A0000DC
:01091B0000DB
:01091C0000DA
:01091D0000D9
:01091E0000D8
:01091F0000D7
:0109200000D6
:0109210000D5
:0109220000D4
:0109230000D3
:0109240000D2
:0109250000D1
:0109260000D0
:0109270000CF
:0109280000CE
:0109290000CD
:01092A0000CC
:01092B0000CB
:01092C0000CA
:01092D0000C9
:01092E0000C8
:01092F0000C7
:0109300000C6
:0109310000C5
:0109320000C4
:0109330000C3
:0109340000C2
:0109350000C1
:0109360000C0
:0109370000BF
:0109380000BE
:0109390000BD
:01093A0000BC
:01093B0000BB
:01093C0000BA
:01093D0000B9
:01093E0000B8
:01093F0000B7
:0109400000B6
:0109410000B5
:0109420000B4
:0109430000B3
:0109440000B2
:0109450000B1
:0109460000B0
:0109470000AF
:0109480000AE
:0109490000AD
:01094A0000AC
:01094B0000AB
:01094C0000AA
:01094D0000A9
:01094E0000A8
:01094F0000A7
:0109500000A6
:0109510000A5
:0109520000A4
:0109530000A3
:0109540000A2
:0109550000A1
:0109560000A0
:01095700009F
:01095800009E
:01095900009D
:01095A00009C
:01095B00009B
:01095C00009A
:01095D000099
:01095E000098
:01095F000097
:010960000096
:010961000095
:010962000094
:010963000093
:010964000092
:010965000091
:010966000090
:01096700008F
:01096800008E
:01096900008D
:01096A00008C
:01096B00008B
:01096C00008A
:01096D000089
:01096E000088
:01096F000087
:010970000086
:010971000085
:010972000084
:010973000083
:010974000082
:010975000081
:010976000080
:01097700007F
:01097800007E
:01097900007D
:01097A00007C
:01097B00007B
:01097C00007A
:01097D000079
:01097E000078
:01097F000077
:010980000076
:010981000075
:010982000074
:010983000073
:010984000072
:010985000071
:010986000070
:01098700006F
:01098800006E
:01098900006D
:01098A00006C
:01098B00006B
:01098C00006A
:01098D000069
:01098E000068
:01098F000067
:010990000066
:010991000065
:010992000064
:010993000063
:010994000062
:010995000061
:010996000060
:01099700005F
:01099800005E
:01099900005D
:01099A00005C
:01099B00005B
:01099C00005A
:01099D000059
:01099E000058
:01099F000057
:0109A0000056
:0109A1000055
:0109A2000054
:0109A3000053
:0109A4000052
:0109A5000051
:0109A6000050
:0109A700004F
:0109A800004E
:0109A900004D
:0109AA00004C
:0109AB00004B
:0109AC00004A
:0109AD000049
:0109AE000048
:0109AF000047
:0109B0000046
:0109B1000045
:0109B2000044
:0109B3000043
:0109B4000042
:0109B5000041
:0109B6000040
:0109B700003F
:0109B800003E
:0109B900003D
:0109BA00003C
:0109BB00003B
:0109BC00003A
:0109BD000039
:0109BE000038
:0109BF000037
:0109C0000036
:0109C1000035
:0109C2000034
:0109C3000033
:0109C4000032
:0109C5000031
:0109C6000030
:0109C700002F
:0109C800002E
:0109C900002D
:0109CA00002C
:0109CB00002B
:0109CC00002A
:0109CD000029
:0109CE000028
:0109CF000027
:0109D0000026
:0109D1000025
:0109D2000024
:0109D3000023
:0109D4000022
:0109D5000021
:0109D6000020
:0109D700001F
:0109D800001E
:0109D900001D
:0109DA00001C
:0109DB00001B
:0109DC00001A
:0109DD000019
:0109DE000018
:0109DF000017
:0109E0000016
:0109E1000015
:0109E2000014
:0109E3000013
:0109E4000012
:0109E5000011
:0109E6000010
:0109E700000F
:0109E800000E
:0109E900000D
:0109EA00000C
:0109EB00000B
:0109EC00000A
:0109ED000009
:0109EE000008
:0109EF000007
:0109F0000006
:0109F1000005
:0109F2000004
:0109F3000003
:0109F4000002
:0109F5000001
:0109F6000000
:0109F70000FF
:0109F80000FE
:0109F90000FD
:0109FA0000FC
:0109FB0000FB
:0109FC0000FA
:0109FD0000F9
:0109FE0000F8
:0109FF0000F7
:010A000000F5
:010A010000F4
:010A020000F3
:010A030000F2
:010A040000F1
:010A050000F0
:010A060000EF
:010A070000EE
:010A080000ED
:010A090000EC
:010A0A0000EB
:010A0B0000EA
:010A0C0000E9
:010A0D0000E8
:010A0E0000E7
:010A0F0000E6
:010A100000E5
:010A110000E4
:010A120000E3
:010A130000E2
:010A140000E1
:010A150000E0
:010A160000DF
:010A170000DE
:010A180000DD
:010A190000DC
:010A1A0000DB
:010A1B0000DA
:010A1C0000D9
:010A1D0000D8
:010A1E0000D7
:010A1F0000D6
:010A200000D5
:010A210000D4
:010A220000D3
:010A230000D2
:010A240000D1
:010A250000D0
:010A260000CF
:010A270000CE
:010A280000CD
:010A290000CC
:010A2A0000CB
:010A2B0000CA
:010A2C0000C9
:010A2D0000C8
:010A2E0000C7
:010A2F0000C6
:010A300000C5
:010A310000C4
:010A320000C3
:010A330000C2
:010A340000C1
:010A350000C0
:010A360000BF
:010A370000BE
:010A380000BD
:010A390000BC
:010A3A0000BB
:010A3B0000BA
:010A3C0000B9
:010A3D0000B8
:010A3E0000B7
:010A3F0000B6
:010A400000B5
:010A410000B4
:010A420000B3
:010A430000B2
:010A440000B1
:010A450000B0
:010A460000AF
:010A470000AE
:010A480000AD
:010A490000AC
:010A4A0000AB
:010A4B0000AA
:010A4C0000A9
:010A4D0000A8
:010A4E0000A7
:010A4F0000A6
:010A500000A5
:010A510000A4
:010A520000A3
:010A530000A2
:010A540000A1
:010A550000A0
:010A5600009F
:010A5700009E
:010A5800009D
:010A5900009C
:010A5A00009B
:010A5B00009A
:010A5C000099
:010A5D000098
:010A5E000097
:010A5F000096
:010A60000095
:010A61000094
:010A62000093
:010A63000092
:010A64000091
:010A65000090
:010A6600008F
:010A6700008E
:010A6800008D
:010A6900008C
:010A6A00008B
:010A6B00008A
:010A6C000089
:010A6D000088
:010A6E000087
:010A6F000086
:010A70000085
:010A71000084
:010A72000083
:010A73000082
:010A74000081
:010A75000080
:010A7600007F
:010A7700007E
:010A7800007D
:010A7900007C
:010A7A00007B
:010A7B00007A
:010A7C000079
:010A7D000078
:010A7E000077
:010A7F000076
:010A80000075
:010A81000074
:010A82000073
:010A83000072
:010A84000071
:010A85000070
:010A8600006F
:010A8700006E
:010A8800006D
:010A8900006C
:010A8A00006B
:010A8B00006A
:010A8C000069
:010A8D000068
:010A8E000067
:010A8F000066
:010A90000065
:010A91000064
:010A92000063
:010A93000062
:010A94000061
:010A95000060
:010A9600005F
:010A9700005E
:010A9800005D
:010A9900005C
:010A9A00005B
:010A9B00005A
:010A9C000059
:010A9D000058
:010A9E000057
:010A9F000056
:010AA0000055
:010AA1000054
:010AA2000053
:010AA3000052
:010AA4000051
:010AA5000050
:010AA600004F
:010AA700004E
:010AA800004D
:010AA900004C
:010AAA00004B
:010AAB00004A
:010AAC000049
:010AAD000048
:010AAE000047
:010AAF000046
:010AB0000045
:010AB1000044
:010AB2000043
:010AB3000042
:010AB4000041
:010AB5000040
:010AB600003F
:010AB700003E
:010AB800003D
:010AB900003C
:010ABA00003B
:010ABB00003A
:010ABC000039
:010ABD000038
:010ABE000037
:010ABF000036
:010AC0000035
:010AC1000034
:010AC2000033
:010AC3000032
:010AC4000031
:010AC5000030
:010AC600002F
:010AC700002E
:010AC800002D
:010AC900002C
:010ACA00002B
:010ACB00002A
:010ACC000029
:010ACD000028
:010ACE000027
:010ACF000026
:010AD0000025
:010AD1000024
:010AD2000023
:010AD3000022
:010AD4000021
:010AD5000020
:010AD600001F
:010AD700001E
:010AD800001D
:010AD900001C
:010ADA00001B
:010ADB00001A
:010ADC000019
:010ADD000018
:010ADE000017
:010ADF000016
:010AE0000015
:010AE1000014
:010AE2000013
:010AE3000012
:010AE4000011
:010AE5000010
:010AE600000F
:010AE700000E
:010AE800000D
:010AE900000C
:010AEA00000B
:010AEB00000A
:010AEC000009
:010AED000008
:010AEE000007
:010AEF000006
:010AF0000005
:010AF1000004
:010AF2000003
:010AF3000002
:010AF4000001
:010AF5000000
:010AF60000FF
:010AF70000FE
:010AF80000FD
:010AF90000FC
:010AFA0000FB
:010AFB0000FA
:010AFC0000F9
:010AFD0000F8
:010AFE0000F7
:010AFF0000F6
:010B000000F4
:010B010000F3
:010B020000F2
:010B030000F1
:010B040000F0
:010B050000EF
:010B060000EE
:010B070000ED
:010B080000EC
:010B090000EB
:010B0A0000EA
:010B0B0000E9
:010B0C0000E8
:010B0D0000E7
:010B0E0000E6
:010B0F0000E5
:010B100000E4
:010B110000E3
:010B120000E2
:010B130000E1
:010B140000E0
:010B150000DF
:010B160000DE
:010B170000DD
:010B180000DC
:010B190000DB
:010B1A0000DA
:010B1B0000D9
:010B1C0000D8
:010B1D0000D7
:010B1E0000D6
:010B1F0000D5
:010B200000D4
:010B210000D3
:010B220000D2
:010B230000D1
:010B240000D0
:010B250000CF
:010B260000CE
:010B270000CD
:010B280000CC
:010B290000CB
:010B2A0000CA
:010B2B0000C9
:010B2C0000C8
:010B2D0000C7
:010B2E0000C6
:010B2F0000C5
:010B300000C4
:010B310000C3
:010B320000C2
:010B330000C1
:010B340000C0
:010B350000BF
:010B360000BE
:010B370000BD
:010B380000BC
:010B390000BB
:010B3A0000BA
:010B3B0000B9
:010B3C0000B8
:010B3D0000B7
:010B3E0000B6
:010B3F0000B5
:010B400000B4
:010B410000B3
:010B420000B2
:010B430000B1
:010B440000B0
:010B450000AF
:010B460000AE
:010B470000AD
:010B480000AC
:010B490000AB
:010B4A0000AA
:010B4B0000A9
:010B4C0000A8
:010B4D0000A7
:010B4E0000A6
:010B4F0000A5
:010B500000A4
:010B510000A3
:010B520000A2
:010B530000A1
:010B540000A0
:010B5500009F
:010B5600009E
:010B5700009D
:010B5800009C
:010B5900009B
:010B5A00009A
:010B5B000099
:010B5C000098
:010B5D000097
:010B5E000096
:010B5F000095
:010B60000094
:010B61000093
:010B62000092
:010B63000091
:010B64000090
:010B6500008F
:010B6600008E
:010B6700008D
:010B6800008C
:010B6900008B
:010B6A00008A
:010B6B000089
:010B6C000088
:010B6D000087
:010B6E000086
:010B6F000085
:010B70000084
:010B71000083
:010B72000082
:010B73000081
:010B74000080
:010B7500007F
:010B7600007E
:010B7700007D
:010B7800007C
:010B7900007B
:010B7A00007A
:010B7B000079
:010B7C000078
:010B7D000077
:010B7E000076
:010B7F000075
:010B80000074
:010B81000073
:010B82000072
:010B83000071
:010B84000070
:010B8500006F
:010B8600006E
:010B8700006D
:010B8800006C
:010B8900006B
:010B8A00006A
:010B8B000069
:010B8C000068
:010B8D000067
:010B8E000066
:010B8F000065
:010B90000064
:010B91000063
:010B92000062
:010B93000061
:010B94000060
:010B9500005F
:010B9600005E
:010B9700005D
:010B9800005C
:010B9900005B
:010B9A00005A
:010B9B000059
:010B9C000058
:010B9D000057
:010B9E000056
:010B9F000055
:010BA0000054
:010BA1000053
:010BA2000052
:010BA3000051
:010BA4000050
:010BA500004F
:010BA600004E
:010BA700004D
:010BA800004C
:010BA900004B
:010BAA00004A
:010BAB000049
:010BAC000048
:010BAD000047
:010BAE000046
:010BAF000045
:010BB0000044
:010BB1000043
:010BB2000042
:010BB3000041
:010BB4000040
:010BB500003F
:010BB600003E
:010BB700003D
:010BB800003C
:010BB900003B
:010BBA00003A
:010BBB000039
:010BBC000038
:010BBD000037
:010BBE000036
:010BBF000035
:010BC0000034
:010BC1000033
:010BC2000032
:010BC3000031
:010BC4000030
:010BC500002F
:010BC600002E
:010BC700002D
:010BC800002C
:010BC900002B
:010BCA00002A
:010BCB000029
:010BCC000028
:010BCD000027
:010BCE000026
:010BCF000025
:010BD0000024
:010BD1000023
:010BD2000022
:010BD3000021
:010BD4000020
:010BD500001F
:010BD600001E
:010BD700001D
:010BD800001C
:010BD900001B
:010BDA00001A
:010BDB000019
:010BDC000018
:010BDD000017
:010BDE000016
:010BDF000015
:010BE0000014
:010BE1000013
:010BE2000012
:010BE3000011
:010BE4000010
:010BE500000F
:010BE600000E
:010BE700000D
:010BE800000C
:010BE900000B
:010BEA00000A
:010BEB000009
:010BEC000008
:010BED000007
:010BEE000006
:010BEF000005
:010BF0000004
:010BF1000003
:010BF2000002
:010BF3000001
:010BF4000000
:010BF50000FF
:010BF60000FE
:010BF70000FD
:010BF80000FC
:010BF90000FB
:010BFA0000FA
:010BFB0000F9
:010BFC0000F8
:010BFD0000F7
:010BFE0000F6
:010BFF0000F5
:010C000000F3
:010C010000F2
:010C020000F1
:010C030000F0
:010C040000EF
:010C050000EE
:010C060000ED
:010C070000EC
:010C080000EB
:010C090000EA
:010C0A0000E9
:010C0B0000E8
:010C0C0000E7
:010C0D0000E6
:010C0E0000E5
:010C0F0000E4
:010C100000E3
:010C110000E2
:010C120000E1
:010C130000E0
:010C140000DF
:010C150000DE
:010C160000DD
:010C170000DC
:010C180000DB
:010C190000DA
:010C1A0000D9
:010C1B0000D8
:010C1C0000D7
:010C1D0000D6
:010C1E0000D5
:010C1F0000D4
:010C200000D3
:010C210000D2
:010C220000D1
:010C230000D0
:010C240000CF
:010C250000CE
:010C260000CD
:010C270000CC
:010C280000CB
:010C290000CA
:010C2A0000C9
:010C2B0000C8
:010C2C0000C7
:010C2D0000C6
:010C2E0000C5
:010C2F0000C4
:010C300000C3
:010C310000C2
:010C320000C1
:010C330000C0
:010C340000BF
:010C350000BE
:010C360000BD
:010C370000BC
:010C380000BB
:010C390000BA
:010C3A0000B9
:010C3B0000B8
:010C3C0000B7
:010C3D0000B6
:010C3E0000B5
:010C3F0000B4
:010C400000B3
:010C410000B2
:010C420000B1
:010C430000B0
:010C440000AF
:010C450000AE
:010C460000AD
:010C470000AC
:010C480000AB
:010C490000AA
:010C4A0000A9
:010C4B0000A8
:010C4C0000A7
:010C4D0000A6
:010C4E0000A5
:010C4F0000A4
:010C500000A3
:010C510000A2
:010C520000A1
:010C530000A0
:010C5400009F
:010C5500009E
:010C5600009D
:010C5700009C
:010C5800009B
:010C5900009A
:010C5A000099
:010C5B000098
:010C5C000097
:010C5D000096
:010C5E000095
:010C5F000094
:010C60000093
:010C61000092
:010C62000091
:010C63000090
:010C6400008F
:010C6500008E
:010C6600008D
:010C6700008C
:010C6800008B
:010C6900008A
:010C6A000089
:010C6B000088
:010C6C000087
:010C6D000086
:010C6E000085
:010C6F000084
:010C70000083
:010C71000082
:010C72000081
:010C73000080
:010C7400007F
:010C7500007E
:010C7600007D
:010C7700007C
:010C7800007B
:010C7900007A
:010C7A000079
:010C7B000078
:010C7C000077
:010C7D000076
:010C7E000075
:010C7F000074
:010C80000073
:010C81000072
:010C82000071
:010C83000070
:010C8400006F
:010C8500006E
:010C8600006D
:010C8700006C
:010C8800006B
:010C8900006A
:010C8A000069
:010C8B000068
:010C8C000067
:010C8D000066
:010C8E000065
:010C8F000064
:010C90000063
:010C91000062
:010C92000061
:010C93000060
:010C9400005F
:010C9500005E
:010C9600005D
:010C9700005C
:010C9800005B
:010C9900005A
:010C9A000059
:010C9B000058
:010C9C000057
:010C9D000056
:010C9E000055
:010C9F000054
:010CA0000053
:010CA1000052
:010CA2000051
:010CA3000050
:010CA400004F
:010CA500004E
:010CA600004D
:010CA700004C
:010CA800004B
:010CA900004A
:010CAA000049
:010CAB000048
:010CAC000047
:010CAD000046
:010CAE000045
:010CAF000044
:010CB0000043
:010CB1000042
:010CB2000041
:010CB3000040
:010CB400003F
:010CB500003E
:010CB600003D
:010CB700003C
:010CB800003B
:010CB900003A
:010CBA000039
:010CBB000038
:010CBC000037
:010CBD000036
:010CBE000035
:010CBF000034
:010CC0000033
:010CC1000032
:010CC2000031
:010CC3000030
:010CC400002F
:010CC500002E
:010CC600002D
:010CC700002C
:010CC800002B
:010CC900002A
:010CCA000029
:010CCB000028
:010CCC000027
:010CCD000026
:010CCE000025
:010CCF000024
:010CD0000023
:010CD1000022
:010CD2000021
:010CD3000020
:010CD400001F
:010CD500001E
:010CD600001D
:010CD700001C
:010CD800001B
:010CD900001A
:010CDA000019
:010CDB000018
:010CDC000017
:010CDD000016
:010CDE000015
:010CDF000014
:010CE0000013
:010CE1000012
:010CE2000011
:010CE3000010
:010CE400000F
:010CE500000E
:010CE600000D
:010CE700000C
:010CE800000B
:010CE900000A
:010CEA000009
:010CEB000008
:010CEC000007
:010CED000006
:010CEE000005
:010CEF000004
:010CF0000003
:010CF1000002
:010CF2000001
:010CF3000000
:010CF40000FF
:010CF50000FE
:010CF60000FD
:010CF70000FC
:010CF80000FB
:010CF90000FA
:010CFA0000F9
:010CFB0000F8
:010CFC0000F7
:010CFD0000F6
:010CFE0000F5
:010CFF0000F4
:010D000000F2
:010D010000F1
:010D020000F0
:010D030000EF
:010D040000EE
:010D050000ED
:010D060000EC
:010D070000EB
:010D080000EA
:010D090000E9
:010D0A0000E8
:010D0B0000E7
:010D0C0000E6
:010D0D0000E5
:010D0E0000E4
:010D0F0000E3
:010D100000E2
:010D110000E1
:010D120000E0
:010D130000DF
:010D140000DE
:010D150000DD
:010D160000DC
:010D170000DB
:010D180000DA
:010D190000D9
:010D1A0000D8
:010D1B0000D7
:010D1C0000D6
:010D1D0000D5
:010D1E0000D4
:010D1F0000D3
:010D200000D2
:010D210000D1
:010D220000D0
:010D230000CF
:010D240000CE
:010D250000CD
:010D260000CC
:010D270000CB
:010D280000CA
:010D290000C9
:010D2A0000C8
:010D2B0000C7
:010D2C0000C6
:010D2D0000C5
:010D2E0000C4
:010D2F0000C3
:010D300000C2
:010D310000C1
:010D320000C0
:010D330000BF
:010D340000BE
:010D350000BD
:010D360000BC
:010D370000BB
:010D380000BA
:010D390000B9
:010D3A0000B8
:010D3B0000B7
:010D3C0000B6
:010D3D0000B5
:010D3E0000B4
:010D3F0000B3
:010D400000B2
:010D410000B1
:010D420000B0
:010D430000AF
:010D440000AE
:010D450000AD
:010D460000AC
:010D470000AB
:010D480000AA
:010D490000A9
:010D4A0000A8
:010D4B0000A7
:010D4C0000A6
:010D4D0000A5
:010D4E0000A4
:010D4F0000A3
:010D500000A2
:010D510000A1
:010D520000A0
:010D5300009F
:010D5400009E
:010D5500009D
:010D5600009C
:010D5700009B
:010D5800009A
:010D59000099
:010D5A000098
:010D5B000097
:010D5C000096
:010D5D000095
:010D5E000094
:010D5F000093
:010D60000092
:010D61000091
:010D62000090
:010D6300008F
:010D6400008E
:010D6500008D
:010D6600008C
:010D6700008B
:010D6800008A
:010D69000089
:010D6A000088
:010D6B000087
:010D6C000086
:010D6D000085
:010D6E000084
:010D6F000083
:010D70000082
:010D71000081
:010D72000080
:010D7300007F
:010D7400007E
:010D7500007D
:010D7600007C
:010D7700007B
:010D7800007A
:010D79000079
:010D7A000078
:010D7B000077
:010D7C000076
:010D7D000075
:010D7E000074
:010D7F000073
:010D80000072
:010D81000071
:010D82000070
:010D8300006F
:010D8400006E
:010D8500006D
:010D8600006C
:010D8700006B
:010D8800006A
:010D89000069
:010D8A000068
:010D8B000067
:010D8C000066
:010D8D000065
:010D8E000064
:010D8F000063
:010D90000062
:010D91000061
:010D92000060
:010D9300005F
:010D9400005E
:010D9500005D
:010D9600005C
:010D9700005B
:010D9800005A
:010D99000059
:010D9A000058
:010D9B000057
:010D9C000056
:010D9D000055
:010D9E000054
:010D9F000053
:010DA0000052
:010DA1000051
:010DA2000050
:010DA300004F
:010DA400004E
:010DA500004D
:010DA600004C
:010DA700004B
:010DA800004A
:010DA9000049
:010DAA000048
:010DAB000047
:010DAC000046
:010DAD000045
:010DAE000044
:010DAF000043
:010DB0000042
:010DB1000041
:010DB2000040
:010DB300003F
:010DB400003E
:010DB500003D
:010DB600003C
:010DB700003B
:010DB800003A
:010DB9000039
:010DBA000038
:010DBB000037
:010DBC000036
:010DBD000035
:010DBE000034
:010DBF000033
:010DC0000032
:010DC1000031
:010DC2000030
:010DC300002F
:010DC400002E
:010DC500002D
:010DC600002C
:010DC700002B
:010DC800002A
:010DC9000029
:010DCA000028
:010DCB000027
:010DCC000026
:010DCD000025
:010DCE000024
:010DCF000023
:010DD0000022
:010DD1000021
:010DD2000020
:010DD300001F
:010DD400001E
:010DD500001D
:010DD600001C
:010DD700001B
:010DD800001A
:010DD9000019
:010DDA000018
:010DDB000017
:010DDC000016
:010DDD000015
:010DDE000014
:010DDF000013
:010DE0000012
:010DE1000011
:010DE2000010
:010DE300000F
:010DE400000E
:010DE500000D
:010DE600000C
:010DE700000B
:010DE800000A
:010DE9000009
:010DEA000008
:010DEB000007
:010DEC000006
:010DED000005
:010DEE000004
:010DEF000003
:010DF0000002
:010DF1000001
:010DF2000000
:010DF30000FF
:010DF40000FE
:010DF50000FD
:010DF60000FC
:010DF70000FB
:010DF80000FA
:010DF90000F9
:010DFA0000F8
:010DFB0000F7
:010DFC0000F6
:010DFD0000F5
:010DFE0000F4
:010DFF0000F3
:010E000000F1
:010E010000F0
:010E020000EF
:010E030000EE
:010E040000ED
:010E050000EC
:010E060000EB
:010E070000EA
:010E080000E9
:010E090000E8
:010E0A0000E7
:010E0B0000E6
:010E0C0000E5
:010E0D0000E4
:010E0E0000E3
:010E0F0000E2
:010E100000E1
:010E110000E0
:010E120000DF
:010E130000DE
:010E140000DD
:010E150000DC
:010E160000DB
:010E170000DA
:010E180000D9
:010E190000D8
:010E1A0000D7
:010E1B0000D6
:010E1C0000D5
:010E1D0000D4
:010E1E0000D3
:010E1F0000D2
:010E200000D1
:010E210000D0
:010E220000CF
:010E230000CE
:010E240000CD
:010E250000CC
:010E260000CB
:010E270000CA
:010E280000C9
:010E290000C8
:010E2A0000C7
:010E2B0000C6
:010E2C0000C5
:010E2D0000C4
:010E2E0000C3
:010E2F0000C2
:010E300000C1
:010E310000C0
:010E320000BF
:010E330000BE
:010E340000BD
:010E350000BC
:010E360000BB
:010E370000BA
:010E380000B9
:010E390000B8
:010E3A0000B7
:010E3B0000B6
:010E3C0000B5
:010E3D0000B4
:010E3E0000B3
:010E3F0000B2
:010E400000B1
:010E410000B0
:010E420000AF
:010E430000AE
:010E440000AD
:010E450000AC
:010E460000AB
:010E470000AA
:010E480000A9
:010E490000A8
:010E4A0000A7
:010E4B0000A6
:010E4C0000A5
:010E4D0000A4
:010E4E0000A3
:010E4F0000A2
:010E500000A1
:010E510000A0
:010E5200009F
:010E5300009E
:010E5400009D
:010E5500009C
:010E5600009B
:010E5700009A
:010E58000099
:010E59000098
:010E5A000097
:010E5B000096
:010E5C000095
:010E5D000094
:010E5E000093
:010E5F000092
:010E60000091
:010E61000090
:010E6200008F
:010E6300008E
:010E6400008D
:010E6500008C
:010E6600008B
:010E6700008A
:010E68000089
:010E69000088
:010E6A000087
:010E6B000086
:010E6C000085
:010E6D000084
:010E6E000083
:010E6F000082
:010E70000081
:010E71000080
:010E7200007F
:010E7300007E
:010E7400007D
:010E7500007C
:010E7600007B
:010E7700007A
:010E78000079
:010E79000078
:010E7A000077
:010E7B000076
:010E7C000075
:010E7D000074
:010E7E000073
:010E7F000072
:010E80000071
:010E81000070
:010E8200006F
:010E8300006E
:010E8400006D
:010E8500006C
:010E8600006B
:010E8700006A
:010E88000069
:010E89000068
:010E8A000067
:010E8B000066
:010E8C000065
:010E8D000064
:010E8E000063
:010E8F000062
:010E90000061
:010E91000060
:010E9200005F
:010E9300005E
:010E9400005D
:010E9500005C
:010E9600005B
:010E9700005A
:010E98000059
:010E99000058
:010E9A000057
:010E9B000056
:010E9C000055
:010E9D000054
:010E9E000053
:010E9F000052
:010EA0000051
:010EA1000050
:010EA200004F
:010EA300004E
:010EA400004D
:010EA500004C
:010EA600004B
:010EA700004A
:010EA8000049
:010EA9000048
:010EAA000047
:010EAB000046
:010EAC000045
:010EAD000044
:010EAE000043
:010EAF000042
:010EB0000041
:010EB1000040
:010EB200003F
:010EB300003E
:010EB400003D
:010EB500003C
:010EB600003B
:010EB700003A
:010EB8000039
:010EB9000038
:010EBA000037
:010EBB000036
:010EBC000035
:010EBD000034
:010EBE000033
:010EBF000032
:010EC0000031
:010EC1000030
:010EC200002F
:010EC300002E
:010EC400002D
:010EC500002C
:010EC600002B
:010EC700002A
:010EC8000029
:010EC9000028
:010ECA000027
:010ECB000026
:010ECC000025
:010ECD000024
:010ECE000023
:010ECF000022
:010ED0000021
:010ED1000020
:010ED200001F
:010ED300001E
:010ED400001D
:010ED500001C
:010ED600001B
:010ED700001A
:010ED8000019
:010ED9000018
:010EDA000017
:010EDB000016
:010EDC000015
:010EDD000014
:010EDE000013
:010EDF000012
:010EE0000011
:010EE1000010
:010EE200000F
:010EE300000E
:010EE400000D
:010EE500000C
:010EE600000B
:010EE700000A
:010EE8000009
:010EE9000008
:010EEA000007
:010EEB000006
:010EEC000005
:010EED000004
:010EEE000003
:010EEF000002
:010EF0000001
:010EF1000000
:010EF20000FF
:010EF30000FE
:010EF40000FD
:010EF50000FC
:010EF60000FB
:010EF70000FA
:010EF80000F9
:010EF90000F8
:010EFA0000F7
:010EFB0000F6
:010EFC0000F5
:010EFD0000F4
:010EFE0000F3
:010EFF0000F2
:010F000000F0
:010F010000EF
:010F020000EE
:010F030000ED
:010F040000EC
:010F050000EB
:010F060000EA
:010F070000E9
:010F080000E8
:010F090000E7
:010F0A0000E6
:010F0B0000E5
:010F0C0000E4
:010F0D0000E3
:010F0E0000E2
:010F0F0000E1
:010F100000E0
:010F110000DF
:010F120000DE
:010F130000DD
:010F140000DC
:010F150000DB
:010F160000DA
:010F170000D9
:010F180000D8
:010F190000D7
:010F1A0000D6
:010F1B0000D5
:010F1C0000D4
:010F1D0000D3
:010F1E0000D2
:010F1F0000D1
:010F200000D0
:010F210000CF
:010F220000CE
:010F230000CD
:010F240000CC
:010F250000CB
:010F260000CA
:010F270000C9
:010F280000C8
:010F290000C7
:010F2A0000C6
:010F2B0000C5
:010F2C0000C4
:010F2D0000C3
:010F2E0000C2
:010F2F0000C1
:010F300000C0
:010F310000BF
:010F320000BE
:010F330000BD
:010F340000BC
:010F350000BB
:010F360000BA
:010F370000B9
:010F380000B8
:010F390000B7
:010F3A0000B6
:010F3B0000B5
:010F3C0000B4
:010F3D0000B3
:010F3E0000B2
:010F3F0000B1
:010F400000B0
:010F410000AF
:010F420000AE
:010F430000AD
:010F440000AC
:010F450000AB
:010F460000AA
:010F470000A9
:010F480000A8
:010F490000A7
:010F4A0000A6
:010F4B0000A5
:010F4C0000A4
:010F4D0000A3
:010F4E0000A2
:010F4F0000A1
:010F500000A0
:010F5100009F
:010F5200009E
:010F5300009D
:010F5400009C
:010F5500009B
:010F5600009A
:010F57000099
:010F58000098
:010F59000097
:010F5A000096
:010F5B000095
:010F5C000094
:010F5D000093
:010F5E000092
:010F5F000091
:010F60000090
:010F6100008F
:010F6200008E
:010F6300008D
:010F6400008C
:010F6500008B
:010F6600008A
:010F67000089
:010F68000088
:010F69000087
:010F6A000086
:010F6B000085
:010F6C000084
:010F6D000083
:010F6E000082
:010F6F000081
:010F70000080
:010F7100007F
:010F7200007E
:010F7300007D
:010F7400007C
:010F7500007B
:010F7600007A
:010F77000079
:010F78000078
:010F79000077
:010F7A000076
:010F7B000075
:010F7C000074
:010F7D000073
:010F7E000072
:010F7F000071
:010F80000070
:010F8100006F
:010F8200006E
:010F8300006D
:010F8400006C
:010F8500006B
:010F8600006A
:010F87000069
:010F88000068
:010F89000067
:010F8A000066
:010F8B000065
:010F8C000064
:010F8D000063
:010F8E000062
:010F8F000061
:010F90000060
:010F9100005F
:010F9200005E
:010F9300005D
:010F9400005C
:010F9500005B
:010F9600005A
:010F97000059
:010F98000058
:010F99000057
:010F9A000056
:010F9B000055
:010F9C000054
:010F9D000053
:010F9E000052
:010F9F000051
:010FA0000050
:010FA100004F
:010FA200004E
:010FA300004D
:010FA400004C
:010FA500004B
:010FA600004A
:010FA7000049
:010FA8000048
:010FA9000047
:010FAA000046
:010FAB000045
:010FAC000044
:010FAD000043
:010FAE000042
:010FAF000041
:010FB0000040
:010FB100003F
:010FB200003E
:010FB300003D
:010FB400003C
:010FB500003B
:010FB600003A
:010FB7000039
:010FB8000038
:010FB9000037
:010FBA000036
:010FBB000035
:010FBC000034
:010FBD000033
:010FBE000032
:010FBF000031
:010FC0000030
:010FC100002F
:010FC200002E
:010FC300002D
:010FC400002C
:010FC500002B
:010FC600002A
:010FC7000029
:010FC8000028
:010FC9000027
:010FCA000026
:010FCB000025
:010FCC000024
:010FCD000023
:010FCE000022
:010FCF000021
:010FD0000020
:010FD100001F
:010FD200001E
:010FD300001D
:010FD400001C
:010FD500001B
:010FD600001A
:010FD7000019
:010FD8000018
:010FD9000017
:010FDA000016
:010FDB000015
:010FDC000014
:010FDD000013
:010FDE000012
:010FDF000011
:010FE0000010
:010FE100000F
:010FE200000E
:010FE300000D
:010FE400000C
:010FE500000B
:010FE600000A
:010FE7000009
:010FE8000008
:010FE9000007
:010FEA000006
:010FEB000005
:010FEC000004
:010FED000003
:010FEE000002
:010FEF000001
:010FF0000000
:010FF10000FF
:010FF20000FE
:010FF30000FD
:010FF40000FC
:010FF50000FB
:010FF60000FA
:010FF70000F9
:010FF80000F8
:010FF90000F7
:010FFA0000F6
:010FFB0000F5
:010FFC0000F4
:010FFD0000F3
:010FFE0000F2
:010FFF0001F0
:00000001FF
